:020000040800F2
:100000001008002089010008E5010008E50100084A
:10001000E5010008E5010008E50100080000000016
:10002000000000000000000000000000E5010008E2
:10003000E501000800000000E5010008E5010008F6
:10004000E5010008E5010008E5010008E5010008F8
:10005000E5010008E5010008E5010008E5010008E8
:10006000E5010008E5010008E5010008E5010008D8
:10007000E5010008E5010008E5010008E5010008C8
:10008000E5010008E5010008E5010008E5010008B8
:10009000E5010008E5010008E5010008E5010008A8
:1000A000E5010008E5010008E5010008E501000898
:1000B000E5010008E5010008E5010008E501000888
:1000C000E5010008E5010008E5010008E501000878
:1000D000E5010008E5010008E5010008E501000868
:1000E000E5010008E5010008E5010008E501000858
:1000F000E5010008E5010008E5010008E501000848
:10010000E5010008E5010008E5010008E501000837
:10011000E5010008E5010008E5010008E501000827
:10012000E5010008E5010008E5010008E501000817
:10013000E5010008E5010008E5010008E501000807
:10014000E5010008E5010008E5010008E5010008F7
:10015000E5010008E5010008E5010008E5010008E7
:10016000E5010008E5010008E5010008E5010008D7
:10017000E5010008E5010008E5010008E5010008C7
:10018000E5010008E501000880B582B000AF104B22
:100190007B60104B3B6007E03B681A1D3A607A6851
:1001A000111D796012681A603B680B4A9342F3D3C1
:1001B0000A480B494FF000028842B8BF40F8042BB0
:1001C000FADB00F015F800BF0837BD4680BD00BF60
:1001D0006416000800000020040000200400002035
:1001E0000C00002080B400AFFEE700BF000000005C
:1001F00090B58BB000AF00F0B3FA0121082000F0F9
:100200002BF90121102000F027F90121012000F035
:1002100023F94FF47043BB6001233B730023BB738E
:1002200003237B730023FB7307F1080319468248FD
:1002300000F08AF940233B7000237B700723BB70DA
:100240000023FB7000233B713B46184600F004FC82
:100250000023FB6100237B6202E07B6A01337B6247
:100260007B6A42F20F729342F7DD01222921734823
:1002700000F048FC01222B21714800F043FC0122D0
:100280002D21704800F03EFC6C4B1B785BB2184689
:1002900000F0AAFE62A3D3E9002300F00BFF03469F
:1002A0000C461846214660A3D3E9002300F002FF64
:1002B00003460C46184621465DA3D3E9002301F00E
:1002C00023F803460C461846214601F005F903467B
:1002D000BB615B4B1B785BB2184600F085FE50A3F8
:1002E000D3E9002300F0E6FE03460C4618462146FB
:1002F0004DA3D3E9002300F0DDFE03460C4618466B
:1003000021464BA3D3E9002300F0FEFF03460C4631
:100310001846214601F0E0F803467B61494B1B7803
:100320005BB2184600F060FE3DA3D3E9002300F065
:10033000C1FE03460C46184621463BA3D3E90023E1
:1003400000F0B8FE03460C461846214638A3D3E910
:10035000002300F0D9FF03460C461846214601F061
:10036000BBF803463B614FF07E51B86901F070F96C
:100370000346002B05D04FF480412F4800F08CF944
:1003800004E04FF480412C4800F094F92E49B869FC
:1003900001F040F90346002B05D04FF48051264868
:1003A00000F07AF904E04FF48051234800F082F91C
:1003B0004FF07E51786901F04BF90346002B05D0D0
:1003C0004FF400511C4800F067F904E04FF400516D
:1003D000194800F06FF91C49786901F01BF90346D0
:1003E000002B05D04FF40041134800F055F904E00C
:1003F0004FF40041104800F05DF90121134800F06E
:1004000031F903461A46124B1A6000233B6202E0A0
:100410003B6A01333B623B6A0E4A9342F8DD19E7BF
:1004200066666666666602401F85EB51B89E23408D
:100430000000000000C05F40000C024009000020E6
:10044000080000200A000020000080BF00000240D9
:1004500004000020BFC62D0080B483B000AF7860D8
:100460000B46FB70FB78002B06D00949084B1A6B32
:100470007B6813430B6306E00549054B1A6B7B68E9
:10048000DB4313400B6300BF0C37BD4680BC704795
:100490000038024080B483B000AF78600B46FB7038
:1004A000FB78002B06D00949084B5A6C7B68134334
:1004B0004B6406E00549054B5A6C7B68DB431340EF
:1004C0004B6400BF0C37BD4680BC7047003802400B
:1004D00080B483B000AF78600B46FB70FB78002BD4
:1004E00006D00949084B1A6A7B6813430B6206E081
:1004F0000549054B1A6A7B68DB4313400B6200BF5A
:100500000C37BD4680BC70470038024080B483B0D1
:1005100000AF78600B46FB70FB78002B06D00949D2
:10052000084B5A6A7B6813434B6206E00549054B4A
:100530005A6A7B68DB4313404B6200BF0C37BD46F1
:1005400080BC70470038024080B487B000AF78604C
:10055000396000237B6100233B610023FB600023A3
:100560007B6176E001227B6902FA03F33B613B6821
:100570001A683B691340FB60FA683B699A4265D18F
:100580007B681A687B695B00032101FA03F3DB4394
:100590001A407B681A607B681A683B681B791946A9
:1005A0007B695B0001FA03F31A437B681A603B68BE
:1005B0001B79012B03D03B681B79022B2ED17B6862
:1005C0009A687B695B00032101FA03F3DB431A405D
:1005D0007B689A607B689A683B685B7919467B699F
:1005E0005B0001FA03F31A437B689A607B685A68E0
:1005F0007B699BB2012101FA03F3DB431A407B685C
:100600005A607B685A683B689B7919467B699BB244
:1006100001FA03F39BB21A437B685A607B68DA687D
:100620007B699BB25B00032101FA03F3DB431A40B1
:100630007B68DA607B68DA683B68DB7919467B693E
:100640005B0001FA03F31A437B68DA607B690133CC
:100650007B617B690F2B85D900BF1C37BD4680BCF1
:10066000704700BF80B485B000AF78600B467B80D8
:100670000023FB737B681A697B881340002B02D030
:100680000123FB7301E00023FB73FB7B1846143747
:10069000BD4680BC704700BF80B483B000AF7860B7
:1006A0000B467B807B687A881A8300BF0C37BD4677
:1006B00080BC704780B483B000AF78600B467B800D
:1006C0007B687A885A8300BF0C37BD4680BC704770
:1006D00080B485B000AF78600B467B8013467B709A
:1006E0000023FB600023BB607A787B8803F007035C
:1006F0009B0002FA03F3FB607B88DB089BB2184681
:100700007B88DB089BB21A467B68083253F82220AC
:100710007B8803F007039B000F2101FA03F3DB43FF
:1007200002EA03017B6800F1080243F822107B888B
:10073000DB089BB21A467B68083253F82220FB681C
:100740001343BB607B88DB089BB21A467B68083288
:10075000B96843F8221000BF1437BD4680BC70470B
:1007600080B500AF124A124B1B6843F001031360BF
:100770000F4B00229A600E4A0D4B1B6823F08473C6
:1007800023F4803313600A4B0A4A5A60084A084B24
:100790001B6823F480231360054B0022DA6000F00D
:1007A0000DF8054B4FF000629A6000BF80BD00BF9E
:1007B000003802401030002400ED00E080B483B027
:1007C00000AF00237B6000233B60354A344B1B683D
:1007D00043F480331360324B1B6803F400333B60F7
:1007E0007B6801337B603B68002B03D17B68B3F5EA
:1007F000A06FF0D12A4B1B6803F40033002B02D00A
:1008000001233B6001E000233B603B68012B42D1A8
:10081000234A234B1B6C43F080531364214A214B22
:100820001B6843F4804313601D4A1D4B9B68936013
:100830001B4A1B4B9B6843F400439360184A184BB8
:100840009B6843F4A0539360154B174A5A60144AAF
:10085000134B1B6843F08073136000BF104B1B6881
:1008600003F00073002BF9D0104B40F205621A60C0
:100870000B4A0B4B9B6823F003039360084A084B19
:100880009B6843F00203936000BF054B9B6803F035
:100890000C03082BF9D100BF0C37BD4680BC704754
:1008A000003802400070004008544007003C0240FD
:1008B00080B582B000AF78607B68174A93420AD156
:1008C00001214FF48050FFF721FE00214FF48050AA
:1008D000FFF71CFE1CE07B68104A93420AD10121FD
:1008E0004FF48040FFF7F4FD00214FF48040FFF704
:1008F000EFFD0DE07B680A4A934209D101214FF4D4
:100900000040FFF7E5FD00214FF40040FFF7E0FD58
:1009100000BF0837BD4680BD0030014000380040B0
:10092000003C004080B485B000AF7860396000239F
:10093000FB817B681B88FB81FB8903F44153FB81AE
:100940003B681A883B685B8813439AB23B689B8874
:1009500013439AB23B68DB8813439AB23B681B8906
:1009600013439AB23B685B8913439AB23B689B89F5
:1009700013439AB23B68DB8913439AB2FB89134352
:10098000FB817B68FA891A807B689B8B9BB223F47E
:1009900000639AB27B689A833B681A8A7B681A82E2
:1009A00000BF1437BD4680BC704700BF80B483B021
:1009B00000AF78600B46FB70FB78002B08D07B689B
:1009C0001B889BB243F040039AB27B681A8007E011
:1009D0007B681B889BB223F040039AB27B681A8025
:1009E00000BF0C37BD4680BC704700BF80B483B0E9
:1009F00000AF78607B689B899BB218460C37BD4678
:100A000080BC704780B483B000AF78600B467B80B9
:100A10007B687A889A8100BF0C37BD4680BC7047DE
:100A200080B485B000AF78600B467B800023FB73F9
:100A30007B681B899AB27B8813409BB2002B02D043
:100A40000123FB7301E00023FB73FB7B1846143783
:100A5000BD4680BC704700BF80B584B000AF7860F1
:100A60000023FB7300F086F87B685A787B681B785C
:100A70001343DAB27B68DB781343DAB27B681B7905
:100A80001343DAB27B689B781343DBB2FB7307F145
:100A90000F0301222021184600F004F800BF103790
:100AA000BD4680BD80B582B000AF78600B46FB705C
:100AB00013463B803B88012B03D9FB7843F040036E
:100AC000FB7008210E48FFF7F5FDFB78184600F093
:100AD000EDF80AE07B681B78184600F0E7F83B88E1
:100AE000013B3B807B6801337B603B88002BF1D16D
:100AF00008210348FFF7D0FD00BF0837BD4680BD81
:100B00000010024080B582B000AF78600B46FB70E9
:100B100013463B803B88012B04D9FB7863F03F03ED
:100B2000FB7003E0FB7863F07F03FB700821104843
:100B3000FFF7C0FDFB78184600F0B8F80CE0002085
:100B400000F0B4F803461A467B681A703B88013BF4
:100B50003B807B6801337B603B88002BEFD1082111
:100B60000348FFF799FD00BF0837BD4680BD00BFB1
:100B70000010024080B588B000AF01214FF48050D2
:100B8000FFF788FC01210120FFF766FC01211020FE
:100B9000FFF762FC01211020FFF75EFC012110200D
:100BA000FFF75AFC052205213D48FFF791FD05227C
:100BB00006213B48FFF78CFD052207213848FFF747
:100BC00087FD02233B770023BB770223FB770223B9
:100BD0007B772023BB6107F1180319463048FFF7E4
:100BE000B3FC8023BB6107F1180319462C48FFF7BB
:100BF000ABFC4023BB6107F1180319462848FFF7F7
:100C0000A3FC2848FFF754FE0023BB8000233B8150
:100C100000237B810023BB814FF40073FB810823F9
:100C20003B8200237B820723BB824FF48273FB80CD
:100C30003B1D19461B48FFF775FE01211948FFF7B8
:100C4000B5FE0823BB6101233B770023BB7702235A
:100C50007B7707F1180319461348FFF775FC082145
:100C60001148FFF719FD0123BB6100233B770023E7
:100C7000BB7702237B770023FB7707F11803194624
:100C80000948FFF761FC0223BB6107F1180319460D
:100C90000548FFF759FC00BF2037BD4680BD00BFA7
:100CA00000000240003001400010024080B582B0D8
:100CB00000AF0346FB711F4B4FF480521A600BE0EC
:100CC0001C4B1B685A1E1B490A60002B04D100F004
:100CD00035F80346DBB229E002211748FFF7A0FEF2
:100CE0000346002BECD0FB799BB219461248FFF764
:100CF00089FE104B4FF480521A600BE00D4B1B68BD
:100D00005A1E0C490A60002B04D100F017F8034664
:100D1000DBB20BE001210848FFF782FE0346002BFF
:100D2000ECD00548FFF762FE0346DBB218460837F1
:100D3000BD4680BD000000200030014080B400AFFF
:100D4000FEE700BF81F0004102E000BF83F00043F6
:100D500030B54FEA41044FEA430594EA050F08BF56
:100D600090EA020F1FBF54EA000C55EA020C7FEA1A
:100D7000645C7FEA655C00F0E2804FEA5454D4EB97
:100D80005555B8BF6D420CDD2C4480EA020281EA61
:100D9000030382EA000083EA010180EA020281EA99
:100DA0000303362D88BF30BD11F0004F4FEA0131EB
:100DB0004FF4801C4CEA113102D0404261EB4101FA
:100DC00013F0004F4FEA03334CEA133302D0524280
:100DD00063EB430394EA050F00F0A780A4F101043C
:100DE000D5F1200E0DDB02FA0EFC22FA05F2801876
:100DF00041F1000103FA0EF2801843FA05F359415C
:100E00000EE0A5F120050EF1200E012A03FA0EFCDA
:100E100028BF4CF0020C43FA05F3C01851EBE37104
:100E200001F0004507D54FF0000EDCF1000C7EEB21
:100E300000006EEB0101B1F5801F1BD3B1F5001F5F
:100E40000CD349085FEA30004FEA3C0C04F101047E
:100E50004FEA445212F5800F80F09A80BCF1004FA7
:100E600008BF5FEA500C50F1000041EB045141EA29
:100E7000050130BD5FEA4C0C404141EB010111F42A
:100E8000801FA4F10104E9D191F0000F04BF0146D5
:100E90000020B1FA81F308BF2033A3F10B03B3F1B3
:100EA00020020CDA0C3208DD02F1140CC2F10C0243
:100EB00001FA0CF021FA02F10CE002F11402D8BFA1
:100EC000C2F1200C01FA02F120FA0CFCDCBF41EA6D
:100ED0000C019040E41AA2BF01EB0451294330BD3C
:100EE0006FEA04041F3C1CDA0C340EDC04F1140419
:100EF000C4F1200220FA04F001FA02F340EA0300F0
:100F000021FA04F345EA030130BDC4F10C04C4F135
:100F1000200220FA02F001FA04F340EA0300294615
:100F200030BD21FA04F0294630BD94F0000F83F45F
:100F3000801306BF81F480110134013D4EE77FEA42
:100F4000645C18BF7FEA655C29D094EA050F08BF8E
:100F500090EA020F05D054EA000C04BF194610466F
:100F600030BD91EA030F1EBF0021002030BD5FEAB3
:100F7000545C05D14000494128BF41F0004130BDDB
:100F800014F580043CBF01F5801130BD01F000452F
:100F900045F0FE4141F470014FF0000030BD7FEAA2
:100FA000645C1ABF194610467FEA655C1CBF0B469D
:100FB000024650EA013406BF52EA033591EA030FB4
:100FC00041F4002130BD00BF90F0000F04BF0021AC
:100FD000704730B54FF4806404F132044FF00005DF
:100FE0004FF0000150E700BF90F0000F04BF002158
:100FF000704730B54FF4806404F1320410F00045BE
:1010000048BF40424FF000013EE700BF42004FEAB8
:10101000E2014FEA31014FEA02701FBF12F07F4335
:1010200093F07F4F81F06051704792F0000F14BF32
:1010300093F07F4F704730B54FF4607401F0004576
:1010400021F0004120E700BF50EA010208BF7047CD
:1010500030B54FF000050AE050EA010208BF7047C2
:1010600030B511F0004502D5404261EB41014FF42B
:10107000806404F132045FEA915C3FF4DCAE4FF02F
:1010800003025FEADC0C18BF03325FEADC0C18BF16
:10109000033202EBDC02C2F1200300FA03FC20FA67
:1010A00002F001FA03FE40EA0E0021FA02F11444B4
:1010B000C1E600BF70B54FF0FF0C4CF4E06C1CEAC9
:1010C00011541DBF1CEA135594EA0C0F95EA0C0F3E
:1010D00000F0DEF82C4481EA030621EA4C5123EAB1
:1010E0004C5350EA013518BF52EA033541F48011E0
:1010F00043F4801338D0A0FB02CE4FF00005E1FB93
:1011000002E506F00042E0FB03E54FF00006E1FBDC
:1011100003569CF0000F18BF4EF0010EA4F1FF041F
:10112000B6F5007F64F5407404D25FEA4E0E6D415F
:1011300046EB060642EAC62141EA55514FEAC52070
:1011400040EA5E504FEACE2EB4F1FD0C88BFBCF5EC
:10115000E06F1ED8BEF1004F08BF5FEA500E50F19D
:10116000000041EB045170BD06F0004646EA010163
:1011700040EA020081EA0301B4EB5C04C2BFD4EB95
:101180000C0541EA045170BD41F480114FF0000E8E
:10119000013C00F3AB8014F1360FDEBF002001F0FC
:1011A000004170BDC4F10004203C35DA0C341BDC76
:1011B00004F11404C4F1200500FA05F320FA04F048
:1011C00001FA05F240EA020001F0004221F000417C
:1011D00010EBD37021FA04F642EB06015EEA430EEF
:1011E00008BF20EAD37070BDC4F10C04C4F120051F
:1011F00000FA04F320FA05F001FA04F240EA0200D2
:1012000001F0004110EBD37041F100015EEA430EA2
:1012100008BF20EAD37070BDC4F1200500FA05F2C2
:101220004EEA020E20FA04F301FA05F243EA020341
:1012300021FA04F001F0004121FA04F220EA020050
:1012400000EBD3705EEA430E08BF20EAD37070BD96
:1012500094F0000F0FD101F00046400041EB010176
:1012600011F4801F08BF013CF7D041EA060195F058
:10127000000F18BF704703F00046520043EB030312
:1012800013F4801F08BF013DF7D043EA06037047FF
:1012900094EA0C0F0CEA135518BF95EA0C0F0CD00A
:1012A00050EA410618BF52EA4306D1D181EA030150
:1012B00001F000414FF0000070BD50EA410606BF4A
:1012C0001046194652EA430619D094EA0C0F02D18F
:1012D00050EA013613D195EA0C0F05D152EA0336D4
:1012E0001CBF104619460AD181EA030101F00041F2
:1012F00041F0FE4141F470014FF0000070BD41F03B
:10130000FE4141F4780170BD70B54FF0FF0C4CF414
:10131000E06C1CEA11541DBF1CEA135594EA0C0F33
:1013200095EA0C0F00F0A7F8A4EB050481EA030E80
:1013300052EA03354FEA013100F088804FEA033367
:101340004FF0805545EA131343EA12634FEA022235
:1013500045EA111545EA10654FEA00260EF00041F6
:101360009D4208BF964244F1FD0404F5407402D248
:101370005B084FEA3202B61A65EB03055B084FEAD9
:1013800032024FF480104FF4002CB6EB020E75EBD6
:10139000030E22BFB61A754640EA0C005B084FEAFE
:1013A0003202B6EB020E75EB030E22BFB61A75467B
:1013B00040EA5C005B084FEA3202B6EB020E75EBC6
:1013C000030E22BFB61A754640EA9C005B084FEA3E
:1013D0003202B6EB020E75EB030E22BFB61A75464B
:1013E00040EADC0055EA060E18D04FEA051545EA3A
:1013F00016754FEA06164FEAC30343EA52734FEAE3
:10140000C2025FEA1C1CC0D111F4801F0BD141EA5B
:1014100000014FF000004FF0004CB6E711F4801FC0
:1014200004BF01430020B4F1FD0C88BFBCF5E06FA0
:101430003FF6AFAEB5EB030C04BFB6EB020C5FEAB0
:10144000500C50F1000041EB045170BD0EF0004E05
:101450004EEA113114EB5C04C2BFD4EB0C0541EA37
:10146000045170BD41F480114FF0000E013C90E634
:1014700045EA060E8DE60CEA135594EA0C0F08BFF8
:1014800095EA0C0F3FF43BAF94EA0C0F0AD150EAF7
:1014900001347FF434AF95EA0C0F7FF425AF10468A
:1014A00019462CE795EA0C0F06D152EA03353FF4B2
:1014B000FDAE1046194622E750EA410618BF52EA2F
:1014C00043067FF4C5AE50EA41047FF40DAF52EA03
:1014D00043057FF4EBAE12E74FEA4102B2F1E0437D
:1014E00024BFB3F5001CDCF1FE5C0DD901F0004C0B
:1014F0004FEAC0024CEA5070B2F1004F40EB83005B
:1015000008BF20F00100704711F0804F21D113F186
:101510003872BCBF01F00040704741F480114FEABF
:101520005252C2F11802C2F1200C10FA0CF320FA48
:1015300002F018BF40F001004FEAC1234FEAD32365
:1015400003FA0CFC40EA0C0023FA02F34FEA4303CF
:10155000CCE77FEA625307D150EA01331EBF4FF058
:10156000FE4040F44000704701F0004040F0FE4073
:1015700040F40000704700BF4FF0FF3C06E000BFA2
:101580004FF0010C02E000BF4FF0010C4DF804CD0C
:101590004FEA40024FEA41037FEA226C18BF7FEA1C
:1015A000236C11D001B052EA530C18BF90EA010F1E
:1015B00058BFB2EB030088BFC81738BF6FEAE170AD
:1015C00018BF40F0010070477FEA226C02D15FEA49
:1015D000402C05D17FEA236CE4D15FEA412CE1D0B5
:1015E0005DF8040B704700BF844608466146FFE77C
:1015F0000FB5FFF7C9FF002848BF10F1000F0FBD5E
:101600004DF808EDFFF7F4FF0CBF012000205DF856
:1016100008FB00BF4DF808EDFFF7EAFF34BF0120DB
:1016200000205DF808FB00BF4DF808EDFFF7E0FF74
:1016300094BF012000205DF808FB00BF4DF808EDC5
:10164000FFF7D2FF94BF012000205DF808FB00BF28
:101650004DF808EDFFF7C8FF34BF012000205DF80A
:0416600008FB00BFC4
:041664000010000072
:0400000508000000EF
:00000001FF
